:100000000C942A000C943F000C943F000C943F0089
:100010000C943F000C943F000C943F000C943F0064
:100020000C943F000C943F000C943F000C943F0054
:100030000C943F000C943F000C943F000C943F0044
:100040000C943F000C943F000C943F000C943F0034
:100050000C943F0011241FBECFE5D8E0DEBFCDBF1A
:1000600010E0A0E6B0E0EEEDF4E002C005900D92E5
:10007000A438B107D9F70E94D3000C946D020C94F8
:100080000000CF93C82F60E080E10E94CB0160E0C8
:1000900081E10E94CB016C2F83E00E944C0261E061
:1000A00082E10E94CB018FEC97E00197F1F700C04D
:1000B000000060E082E10E94CB018FEC97E00197A5
:1000C000F1F700C00000CF910895CF93C82F61E0F1
:1000D00080E10E94CB0160E081E10E94CB016C2FA6
:1000E00083E00E944C0261E082E10E94CB018FEC30
:1000F00097E00197F1F700C0000060E082E10E9404
:10010000CB018FEC97E00197F1F700C00000CF9191
:1001100008952FE788E391E0215080409040E1F777
:1001200000C0000088E30E9441008FEC97E0019737
:10013000F1F700C000008CE00E9441008FEC97E0D6
:100140000197F1F700C0000081E00E9441008FE9B3
:100150009FE00197F1F700C0000086E00E94410097
:100160008FEC97E00197F1F700C0000080E80E9453
:1001700041008FEC97E00197F1F700C0000008956F
:100180000F931F93CF938C01C0E0F801EC0FF11D8A
:100190008081882321F00E946500CF5FF6CFCF9148
:1001A0001F910F910895CF93DF9300D000D0CDB76A
:1001B000DEB70E945A020E948900809160009091EF
:1001C0006100A0916200B091630089839A83AB8340
:1001D000BC838DE40E94650082E50E94650084E591
:1001E0000E946500CE0101960E94C000FFCF982FAB
:1001F0009695969596958770613031F008F48FC08A
:10020000623009F44EC008959130B9F028F0923070
:1002100031F19330A9F108954AB321E030E0B901FA
:1002200002C0660F771F8A95E2F7CB018095942F65
:1002300098239ABB9BB389234CC047B321E030E09D
:10024000B90102C0660F771F8A95E2F7CB0180954E
:10025000942F982397BB98B3892388BB089544B300
:1002600021E030E0B90102C0660F771F8A95E2F7FE
:10027000CB018095942F982394BB95B389233BC0E1
:1002800041B321E030E0B90102C0660F771F8A95C3
:10029000E2F7CB018095942F982391BB92B38923E9
:1002A0003CC0913031F028F09230A9F0933029F120
:1002B00008954AB321E030E0B90102C0660F771F0C
:1002C0008A95E2F7CB01962F909594239ABB9BB326
:1002D000892B8BBB089544B321E030E0B90102C003
:1002E000660F771F8A95E2F7CB01962F909594239E
:1002F00094BB95B3892B85BB089541B321E030E0D1
:10030000B90102C0660F771F8A95E2F7CB01962FDD
:100310009095942391BB92B3892B82BB0895913021
:1003200099F028F09230E9F0933041F108954AB302
:1003300021E030E0B90102C0660F771F8A95E2F72D
:10034000CB01842B8ABB089547B321E030E0B9018B
:1003500002C0660F771F8A95E2F7CB01842B87BB1B
:10036000089544B321E030E0B90102C0660F771F61
:100370008A95E2F7CB01842B84BB089541B321E039
:1003800030E0B90102C0660F771F8A95E2F7CB0112
:10039000842B81BB0895982F969596959695877096
:1003A0006130C1F5913091F028F09230D9F093305E
:1003B00029F108954BB321E030E0B90102C0660F86
:1003C000771F8A95E2F7CB01842B3AC048B321E02E
:1003D00030E0B90102C0660F771F8A95E2F7CB01C2
:1003E000842B3CC045B321E030E0B90102C0660F68
:1003F000771F8A95E2F7CB01842B3EC042B321E000
:1004000030E0B90102C0660F771F8A95E2F7CB0191
:10041000842B40C061113FC09130A1F028F0923090
:10042000F9F0933059F108954BB321E030E0B90170
:1004300002C0660F771F8A95E2F7CB01809584236F
:100440008BBB089548B321E030E0B90102C0660FCC
:10045000771F8A95E2F7CB018095842388BB0895A6
:1004600045B321E030E0B90102C0660F771F8A95DD
:10047000E2F7CB018095842385BB089542B321E048
:1004800030E0B90102C0660F771F8A95E2F7CB0111
:100490008095842382BB0895813041F028F082301A
:1004A00029F0833029F008956BBB089565BB08954A
:1004B00062BB08950F931F93CF9304E610E0C0E052
:1004C000F80161918F018C2F0E94F700CF5FC0323D
:0E04D000B9F7CF911F910F910895F894FFCFC7
:1004DE006B736100000000000000000200000000CD
:1004EE0001000000000000000000000000000000FD
:0404FE0000000000FA
:00000001FF
