:100000000C942A000C943F000C943F000C943F0089
:100010000C943F000C943F000C943F000C943F0064
:100020000C943F000C943F000C943F000C943F0054
:100030000C943F000C943F000C943F000C943F0044
:100040000C943F000C943F000C943F000C943F0034
:100050000C943F0011241FBECFE5D8E0DEBFCDBF1A
:1000600010E0A0E6B0E0EAEAF4E002C005900D92EC
:10007000A038B107D9F70E94BA000C9453020C942F
:100080000000682F83E00E94300260E080E10E945F
:10009000AB0160E081E10E94AB0161E082E10E947E
:1000A000AB018FEC97E00197F1F700C0000060E032
:1000B00082E10E94AB018FEC97E00197F1F700C05D
:1000C00000000895682F83E00E94300261E080E123
:1000D0000E94AB0160E081E10E94AB0161E082E13E
:1000E0000E94AB018FEC97E00197F1F700C0000090
:1000F00060E082E10E94AB018FEC97E00197F1F79D
:1001000000C0000008952FE788E391E0215080406F
:100110009040E1F700C0000088E30E9441008FECAE
:1001200097E00197F1F700C000008CE00E944100C9
:100130008FEC97E00197F1F700C0000081E00E948A
:1001400041008FE99FE00197F1F700C0000086E0D1
:100150000E9441008FEC97E00197F1F700C000008A
:1001600080E80E9441008FEC97E00197F1F700C012
:10017000000008950E9443020E94830081E60E94CD
:100180006200FFCF982F969596959695877061306F
:1001900031F008F4A4C0623009F451C008959130E0
:1001A000C1F028F0923039F19330B9F108954AB393
:1001B00021E030E0B90102C0660F771F8A95E2F7AF
:1001C000CB018095942F98239ABB9BB389238BBB3B
:1001D000089547B321E030E0B90102C0660F771FF0
:1001E0008A95E2F7CB018095942F982397BB98B31B
:1001F000892388BB089544B321E030E0B90102C0EF
:10020000660F771F8A95E2F7CB018095942F98238C
:1002100094BB95B3892385BB089541B321E030E0B9
:10022000B90102C0660F771F8A95E2F7CB0180956E
:10023000942F982391BB92B3892382BB0895913068
:10024000C1F028F0923039F19330B9F108954AB3F2
:1002500021E030E0B90102C0660F771F8A95E2F70E
:10026000CB01962F909594239ABB9BB3892B8BBB84
:1002700008954AB321E030E0B90102C0660F771F4C
:100280008A95E2F7CB01962F909594239ABB9BB366
:10029000892B8BBB089544B321E030E0B90102C043
:1002A000660F771F8A95E2F7CB01962F90959423DE
:1002B00094BB95B3892B85BB089541B321E030E011
:1002C000B90102C0660F771F8A95E2F7CB01962F1E
:1002D0009095942391BB92B3892B82BB0895913062
:1002E00099F028F09230E9F0933041F108954AB343
:1002F00021E030E0B90102C0660F771F8A95E2F76E
:10030000CB01842B8ABB089547B321E030E0B901CB
:1003100002C0660F771F8A95E2F7CB01842B87BB5B
:10032000089544B321E030E0B90102C0660F771FA1
:100330008A95E2F7CB01842B84BB089541B321E079
:1003400030E0B90102C0660F771F8A95E2F7CB0152
:10035000842B81BB0895982F9695969596958770D6
:100360006130E1F5913099F028F09230E9F0933066
:1003700041F108954BB321E030E0B90102C0660FAE
:10038000771F8A95E2F7CB01842B8BBB089548B386
:1003900021E030E0B90102C0660F771F8A95E2F7CD
:1003A000CB01842B88BB089545B321E030E0B9012F
:1003B00002C0660F771F8A95E2F7CB01842B85BBBD
:1003C000089542B321E030E0B90102C0660F771F03
:1003D0008A95E2F7CB01842B82BB089561113FC05F
:1003E0009130A1F028F09230F9F0933059F108954E
:1003F0004BB321E030E0B90102C0660F771F8A9548
:10040000E2F7CB01809584238BBB089548B321E0AC
:1004100030E0B90102C0660F771F8A95E2F7CB0181
:100420008095842388BB089545B321E030E0B9016D
:1004300002C0660F771F8A95E2F7CB01809584236F
:1004400085BB089542B321E030E0B90102C0660FD8
:10045000771F8A95E2F7CB018095842382BB0895AC
:10046000869586958695813041F028F0823039F066
:10047000833039F008956BBB089565BB089565BB63
:10048000089562BB0895CF93C0E009C0EC2FF0E05F
:10049000E05AFF4F60818C2F0E94C200CF5FC032B4
:0A04A000A8F3CF910895F894FFCF60
:1004AA00000000000000000200000000010000003F
:1004BA000000000000000000000000000000000032
:00000001FF
